:020000040000FA
:060000006FEF03F0120097
:020006000000F8
:080008000000000000000000F0
:1000100000000000000000000000000000000000E0
:1000200012003C0EE66E4FEC03F0E55200D01200D9
:10003000140EE66E4FEC03F0E55200D01200D26AC7
:10004000300ED36E946A0F013A6B280EE66E1AECEE
:1000500001F0E552010EE66E85EC02F0E5520F0E5E
:10006000E66E85EC02F0E552060EE66E85EC02F0D7
:10007000E552280EE66E070EE66E000EE66ED8EC30
:1000800001F0E552E552E552400EE66E0CEC02F04E
:10009000E552190EE66E070EE66E000EE66ED8EC1F
:1000A00001F0E552E552E5520E0EE66E0CEC02F060
:1000B000E552160EE66E070EE66E000EE66ED8EC02
:1000C00001F0E552E552E5520001736B746B756BFC
:1000D000140EE66E38EC03F0E5523B0E0001755D40
:1000E00002E2752B0DD0756B3B0E745D02E2742B32
:1000F00007D0746B170E735D02E2732B01D0736B24
:10010000050EE66E0CEC02F0E5520A0E126E12C0FD
:100110000CF073C007F07DEC03F007C060F0300E08
:1001200000016025E66E5EEC02F0E552060EE66E1A
:100130000CEC02F0E5520A0E126E12C00CF073C005
:1001400007F07DEC03F003C060F0300E0001602585
:10015000E66E5EEC02F0E552070EE66E0CEC02F085
:10016000E5523A0EE66E5EEC02F0E552080EE66EDF
:100170000CEC02F0E5520A0E126E12C00CF074C0C4
:1001800007F07DEC03F007C060F0300E0001602541
:10019000E66E5EEC02F0E552090EE66E0CEC02F043
:1001A000E5520A0E126E12C00CF074C007F07DEC1E
:1001B00003F003C060F0300E00016025E66E5EECD7
:1001C00002F0E5520A0EE66E0CEC02F0E5523A0E31
:1001D000E66E5EEC02F0E5520B0EE66E0CEC02F001
:1001E000E5520A0E126E12C00CF075C007F07DECDD
:1001F00003F007C060F0300E00016025E66E5EEC93
:1002000002F0E5520C0EE66E0CEC02F0E5520A0E1E
:10021000126E12C00CF075C007F07DEC03F003C045
:1002200060F0300E00016025E66E5EEC02F0E552F3
:040230004FD7120092
:0C023400D9CFE6FFE1CFD9FFF00E821613
:100240009416949C949A94988B9C8B9A8B9811EC0E
:1002500000F0300EE66E85EC02F0E552050EE66E1B
:1002600038EC03F0E552300EE66E85EC02F0E55214
:10027000010EE66E38EC03F0E552320EE66E85ECC8
:1002800002F0E55219EC03F0000901E0FBD719EC8C
:1002900003F0000901E0FBD7FE0EDBCFE6FF85ECA3
:1002A00002F0E55219EC03F0000901E0FBD7080E5B
:1002B000E66E85EC02F0E55219EC03F0000901E06E
:1002C000FBD70F0EE66E85EC02F0E55219EC03F059
:1002D000000901E0FBD7010EE66E85EC02F0E55265
:1002E00019EC03F0000901E0FBD7040EE66E85EC83
:1002F00002F0E55219EC03F0000901E0FBD7800E93
:10030000E66E0CEC02F0E55200D0E552E7CFD9FFE3
:020310001200D9
:0E031200060EF66E000EF76E000EF86E00017D
:100320000900F5507B6F0900F5507C6F03E17B6796
:1003300001D03DD00900F550766F0900F550776F78
:100340000900F550786F09000900F550E96E0900C1
:10035000F550EA6E090009000900F550796F0900AF
:10036000F5507A6F09000900F6CF7DF0F7CF7EF0E7
:10037000F8CF7FF076C0F6FF77C0F7FF78C0F8FFC0
:100380000001795302E17A5307E00900F550EE6E5F
:100390007907F8E27A07F9D77DC0F6FF7EC0F7FF4C
:1003A0007FC0F8FF00017B07000E7C5BBFD7120007
:1003B000D9CFE6FFE1CFD9FFFC0EDBCFF6FFFD0E74
:1003C000DBCFF7FFFE0EDBCFF8FF0800F5501FE094
:1003D00019EC03F0000901E0FBD7FC0EDBCFF6FFC0
:1003E000FD0EDBCFF7FFFE0EDBCFF8FF0800F55068
:1003F000E66E5EEC02F0E552D950FC0FE96EFF0E9E
:10040000DA20EA6EEE2A000EEE22EE22D5D700D0D8
:08041000E552E7CFD9FF12000D
:08041800D9CFE6FFE1CFD9FFC7
:10042000F00E94168216FE0EDB508009E8380F0B92
:100430000F0B82128B9C8B9A04EC00F08B8804ECDF
:1004400000F08B98F00E8216FE0EDB500F0B82121E
:1004500004EC00F08B8804EC00F08B980F0E9412E3
:0A04600000D0E552E7CFD9FF1200EB
:06046A00D9CFE6FFE1CF4F
:10047000D9FFF00E94168216FE0EDB504009E838C4
:100480000F0B0F0B82128B9C8B9A04EC00F08B8865
:1004900004EC00F08B98F00E8216FE0EDB500F0B72
:1004A000821204EC00F08B8804EC00F08B980F0EA5
:0C04B000941200D0E552E7CFD9FF1200F3
:0404BC00D9CFE6FFAF
:1004C000E1CFD9FFF00E94168216FE0EDB380F0B2B
:1004D0000F0B82128B8A8B9C04EC00F08B8804EC4F
:1004E00000F08B98F00E8216FE0EDB500F0B82127E
:1004F00004EC00F08B8804EC00F08B980F0E941243
:0A05000000D0E552E7CFD9FF12004A
:06050A00D9CFE6FFE1CFAE
:10051000D9FFF00E94168216FE0EDB380F0B0F0B70
:1005200082128B9C8B9A04EC00F08B8804EC00F018
:100530008B98F00E8216FE0EDB500F0B821204EC2D
:1005400000F08B8804EC00F08B980F0E941200D012
:08055000E552E7CFD9FF1200CC
:08055800D9CFE6FFE1CFD9FF86
:10056000FD0EDBCFE9FFFE0EDBCFEAFFEF5016E01A
:1005700019EC03F0000901E0FBD7FD0EDBCFE9FF2A
:10058000FE0EDBCFEAFFEF50E66E5EEC02F0E552C6
:10059000FD0EDB2AFE0E01E3DB2AE2D700D0E55296
:0605A000E7CFD9FF1200B5
:0A05A600D9CFE6FFE1CFD9FFE652FE
:1005B0008B8C8B8A04EC00F08B8804EC00F0823882
:1005C000F00BF00BDF6E8B9804EC00F08B8804ECE2
:1005D00000F00F0E8214DF128B988B9A8B9CDF50E9
:0C05E00000D0E552E552E7CFD9FF120031
:0405EC00D9CFE6FF7E
:1005F000E1CFD9FFE6528B8C8B9A04EC00F08B880C
:1006000004EC00F08238F00BF00BDF6E8B9804ECFA
:1006100000F08B8804EC00F00F0E8214DF128B9830
:100620008B9C7F0EDF1400D0E552E552E7CFD9FF57
:020630001200B6
:0E0632008B8C8B9A04EC00F08B8804EC00F0AB
:1006400082A60BD08B9804EC00F08B8804EC00F0B1
:100650008B988B9C010E0BD00AD08B9804EC00F089
:100660008B8804EC00F08B988B9C000E00D012005D
:10067000FF0EE350116EEF0E01D0F30EE76EE72E82
:100680003FEF03F00C0E106EE76AE72E45EF03F024
:0E069000102E44EF03F0112E3DEF03F0120088
:02069E00FF0E4D
:1006A000E350116E480E01D04C0EE76EE72EFED7D8
:0E06B000E76AE72EFED7112EF7D700001200E2
:0206BE00000E2C
:1006C000F36E00EE00F0060E01D81200EA6002D0D0
:0E06D000EE6AFCD7F350E9601200EE6AFCD728
:0206DE0015EE17
:1006E00000F025EE00F0F86A0F9C89EC01F097EC21
:0A06F00003F01FEC00F0FBD712002E
:0606FA00036A080EE76E22
:10070000D890073603360C50035C02E3036E072AC9
:06071000E72EF7D71200EE
:0A071600504D00536570742E31350C
:0D072000746820323031310054696D65007D
:02072E001200B7
:020000040030CA
:010001006896
:010002000EEF
:0100030030CC
:01000500B545
:0100060001F8
:00000001FF
